:020000040800F2
:100000000050002029060008750600087506000843
:100010007506000875060008750600080000000057
:10002000000000000000000000000000750600084D
:100030007506000800000000750600087506000837
:1000400075060008750600087506000875060008A4
:100050007506000875060008750600087506000894
:100060007506000875060008750600087506000884
:100070007506000875060008750600087506000874
:100080007506000875060008750600087506000864
:100090007506000875060008750600087506000854
:1000A0007506000875060008750600087506000844
:1000B0006905000800000000000000007506000847
:1000C0007506000875060008750600087506000824
:1000D0007506000875060008750600087506000814
:1000E000750600087506000800000000000000000A
:1000F0000000000000000000000000000000000000
:1001000000000000750600080000000075060008E9
:1001100000000000000000007506000875060008D9
:1001200075060008750600087506000875060008C3
:10013000750600080000000000000000000000003C
:100140007506000875060008750600080000000026
:100150007506000875060008750600087506000893
:100160007506000875060008750600080000000006
:100170007506000875060008000000000000000079
:0C018000750600087506000875060008EA
:10018C0010B5054C237833B9044B13B10448AFF3C5
:10019C0000800123237010BD00000020000000002F
:1001AC00C006000808B5034B1BB103490348AFF365
:1001BC00008008BD0000000004000020C0060008FC
:1001CC0080B582B000AF4FF090431B6903F0010380
:1001DC00012B13D10123FB710023BB710AE03A4BB5
:1001EC005B69394A43F4005343F001035361BB7913
:1001FC000133BB71BB79092BF1D901E00023FB71F1
:10020C004FF090431B6903F00203022B03D12F4BD9
:10021C0000221A7002E02D4B01221A70FB79002B80
:10022C004ED12A4B1B78002B29D1274B5B69264AD0
:10023C0023F4005323F00103536100237B7100234B
:10024C003B7112E03B7903F1007303F5A0539B0063
:10025C00184600F041F80346B3F1FF3F02D17B7919
:10026C0001337B713B7901333B713B79092BE9D924
:10027C007B790A2B24D0164800F03CF820E00023B0
:10028C00FB700023BB7012E0BB7803F1007303F525
:10029C0028539B00184600F01FF80346B3F1FF3FAC
:1002AC0002D1FB780133FB70BB780133BB70BB7898
:1002BC00092BE9D9FB780A2B02D0064800F01AF872
:1002CC0000BF0837BD4680BD000400481E0000205A
:1002DC000050000800A8000880B485B000AF78601A
:1002EC007B681B68FB60FB6818461437BD465DF8DD
:1002FC00047B704780B584B000AF78607B68FB608E
:10030C0000F0EAF8094B00221A60084B00225A60F0
:10031C00064B00229A60FB681B68FA68526883F3EC
:10032C000888104700BF1037BD4680BD10E000E0C4
:10033C0080B483B000AF0346FB7197F90730002BF4
:10034C000BDBFB7903F01F02074997F907305B09B8
:10035C00012000FA02F241F8232000BF0C37BD4601
:10036C005DF8047B704700BF00E100E080B400AF93
:10037C00474B1B68464A43F007031360454BDB6C45
:10038C00444A43F00103D364424BDB6C414A43F0D3
:10039C000203D3643F4BDB6C3E4A43F08003D364CF
:1003AC004FF090431B684FF0904223F00F03136003
:1003BC004FF09043DB684FF0904243F00A03D36058
:1003CC00354B1B68344A23F0006323F0020313609F
:1003DC00314B9B68304A43F0006343F00203936057
:1003EC002C4B9B6D2B4A43F001039365294B1B68E7
:1003FC00284A23F08073136000BF264B1B6803F060
:10040C000073002BF9D1234B1B68224A43F4803331
:10041C001360204BDB681F4A43F00303D3601D4B72
:10042C001C4ADB68D3601B4BDB681A4A23F48053ED
:10043C00D360184BDB68174A43F42063D360154B29
:10044C00144ADB68D360134BDB68124A43F08073A9
:10045C00D360104B1B680F4A43F08073136000BFCE
:10046C000C4B1B6803F00073002BF9D1094B9B68F4
:10047C00084A43F00303936000BF064B9B6803F0EC
:10048C000C030C2BF9D100BFBD465DF8047B704703
:10049C0000200240001002400004004880B500AF6C
:1004AC004FF080430B4ADA624FF080431B684FF0E9
:1004BC00804243F0010313601C20FFF739FF4FF01B
:1004CC008043DB684FF0804243F00103D36000BFF0
:1004DC0080BD00BF00127A0080B400AF4FF08043A3
:1004EC00DB684FF0804223F00103D3604FF0804370
:1004FC001B684FF0804223F001031360154BDB683F
:10050C00144A03F48053D360124B9B68114B0022A6
:10051C009A60104B63221A600E4B9B6D0D4A23F0B0
:10052C00010393650B4BDB6C0A4A23F00203D36483
:10053C00084BDB6C074A23F00103D364064B1B68A2
:10054C00054A23F00703136000BFBD465DF8047B2A
:10055C00704700BF001002400020024080B400AF82
:10056C00074B01221A704FF080431B694FF08042F9
:10057C0023F00103136100BFBD465DF8047B704797
:10058C001C00002080B582B000AFFFF7EFFEFFF734
:10059C0085FF6423FB8034E01D4B1B78002B30D08F
:1005AC001C4B1B78002B13D04FF090435B694FF022
:1005BC00904243F001035361174B5B69164A43F4B5
:1005CC00005343F001035361124B00221A7012E0E6
:1005DC004FF090435B694FF0904223F0010353615D
:1005EC000D4B5B690C4A23F4005323F00103536158
:1005FC00084B01221A70064B00221A70FB88013B33
:10060C00FB80FB88002BC7D1FFF7DAFDFEE700BFAC
:10061C001C0000201D00002000040048DFF830D032
:10062C00002103E00B4B5B58435004310A480B4B41
:10063C0042189A42F6D30A4A02E0002342F8043BDD
:10064C00084B9A42F9D300F011F8FFF79BFFFEE735
:10065C0000500020E00600080000002000000020F0
:10066C000000002020000020FEE7000070B50D4DBA
:10067C000D4C641BA4100026A64209D10B4D0C4C4A
:10068C0000F018F8641BA4100026A64205D170BD1A
:10069C0055F8043B98470136EEE755F8043B98476C
:1006AC000136F2E7D8060008D8060008D80600087C
:1006BC00DC060008F8B500BFF8BC08BC9E467047C5
:0C06CC00F8B500BFF8BC08BC9E467047A3
:0406D800B101000864
:0406DC008D01000884
:0400000508000629C0
:00000001FF
