:020000040800F2
:10A800000000012019AC000869AC000869AC000820
:10A8100069AC000869AC000869AC000800000000E1
:10A8200000000000000000000000000069AC00080B
:10A8300069AC00080000000069AC000869AC0008C1
:10A8400069AC000869AC000869AC000869AC000894
:10A8500069AC000869AC000869AC000869AC000884
:10A8600069AC000869AC000869AC000869AC000874
:10A8700069AC000869AC000869AC000869AC000864
:10A8800069AC000869AC000869AC000869AC000854
:10A8900069AC000869AC000869AC000869AC000844
:10A8A00069AC000869AC000869AC000869AC000834
:10A8B00091AB0008000000000000000069AC000837
:10A8C00069AC000869AC000869AC000869AC000814
:10A8D00069AC000869AC000869AC000869AC000804
:10A8E00069AC000869AC000800000000000000002E
:10A8F0000000000000000000000000000000000058
:10A900000000000069AC00080000000069AC00080D
:10A91000000000000000000069AC000869AC0008FD
:10A9200069AC000869AC000869AC000869AC0008B3
:10A9300069AC0008000000000000000000000000FA
:10A9400069AC000869AC000869AC000800000000B0
:10A9500069AC000869AC000869AC000869AC000883
:10A9600069AC000869AC000869AC00080000000090
:10A9700069AC000869AC000800000000000000009D
:0CA9800069AC000869AC000869AC000874
:10A98C0010B5054C237833B9044B13B10448AFF31D
:10A99C0000800123237010BD000000200000000087
:10A9AC00B4AC000808B5034B1BB103490348AFF323
:10A9BC00008008BD0000000004000020B4AC0008BA
:10A9CC0080B400AF034B044A9A6000BFBD465DF8EB
:10A9DC00047B704700ED00E000A8000880B483B051
:10A9EC0000AF0346FB7197F90730002B0BDBFB79AB
:10A9FC0003F01F02074997F907305B09012000FAA1
:10AA0C0002F241F8232000BF0C37BD465DF8047BF1
:10AA1C00704700BF00E100E080B400AF474B1B68FB
:10AA2C00464A43F007031360454BDB6C444A43F042
:10AA3C000103D364424BDB6C414A43F00203D36401
:10AA4C003F4BDB6C3E4A43F08003D3644FF09043A2
:10AA5C001B684FF0904223F0020313604FF09043B9
:10AA6C009B684FF0904243F002039360354B1B6898
:10AA7C00344A23F0006323F002031360314B9B68CC
:10AA8C00304A43F0006343F0020393602C4B9B6D00
:10AA9C002B4A43F001039365294B1B68284A23F08A
:10AAAC008073136000BF264B1B6803F00073002BF0
:10AABC00F9D1234B1B68224A43F480331360204B9B
:10AACC00DB681F4A43F00303D3601D4B1C4ADB6851
:10AADC00D3601B4BDB681A4A23F48053D360184BAA
:10AAEC00DB68174A43F42063D360154B144ADB68C8
:10AAFC00D360134BDB68124A43F08073D360104B66
:10AB0C001B680F4A43F08073136000BF0C4B1B682B
:10AB1C0003F00073002BF9D1094B9B68084A43F0F2
:10AB2C000303936000BF064B9B6803F00C030C2BD4
:10AB3C00F9D100BFBD465DF8047B70470020024090
:10AB4C00001002400004004880B500AF4FF0804375
:10AB5C000B4ADA624FF080431B684FF0804243F09F
:10AB6C00010313601C20FFF739FF4FF08043DB68B3
:10AB7C004FF0804243F00103D36000BF80BD00BFA3
:10AB8C0000C2EB0B80B400AF074B01221A704FF0E0
:10AB9C0080431B694FF0804223F00103136100BF17
:10ABAC00BD465DF8047B70471C00002080B500AFEB
:10ABBC00FFF732FFFFF7C8FF114B1B78002BFBD0C0
:10ABCC00104B1B78002B0BD00F4B5B690E4A43F4D8
:10ABDC00005343F0010353610A4B00221A700AE040
:10ABEC00094B5B69084A23F4005323F001035361BA
:10ABFC00044B01221A70024B00221A70DCE700BFD2
:10AC0C001C0000201D00002000040048DFF834D098
:10AC1C00FFF7D6FE002103E00B4B5B584350043189
:10AC2C000A480B4B42189A42F6D30A4A02E0002318
:10AC3C0042F8043B084B9A42F9D300F011F8FFF7A5
:10AC4C00B5FFFEE700000120D4AC00080000002096
:10AC5C00000000200000002020000020FEE7000083
:10AC6C0070B50D4D0D4C641BA4100026A64209D1E5
:10AC7C000B4D0C4C00F018F8641BA4100026A642D7
:10AC8C0005D170BD55F8043B98470136EEE755F8F1
:10AC9C00043B98470136F2E7CCAC0008CCAC00087A
:10ACAC00CCAC0008D0AC0008F8B500BFF8BC08BCB0
:10ACBC009E467047F8B500BFF8BC08BC9E4670476E
:04ACCC00B1A9000822
:04ACD0008DA9000842
:040000050800AC192A
:00000001FF
